:020000040800F2
:10000000D00A00200101000813290008C5240008B7
:10001000112900080F020008BD3900080000000087
:10002000000000000000000000000000A52F0008F4
:100030008903000800000000492900088D330008EA
:100040001B0100081B0100081B0100081B01000820
:100050001B0100081B0100081B0100081B01000810
:100060001B0100081B0100081B0100081B01000800
:100070001B0100081B0100081B0100081B010008F0
:100080001B0100081B0100081B0100081B010008E0
:100090001B0100081B0100081B0100081B010008D0
:1000A0001B0100081B0100081B0100081B010008C0
:1000B0001B0100081B0100081B0100081B010008B0
:1000C0001B0100081B0100081B0100081B010008A0
:1000D0001B0100081B010008B13900081B010008C2
:1000E0001B0100081B0100081B010008DFF80CD0F1
:1000F00000F06CF800480047453F0008D00A002097
:100100000648804706480047FEE7FEE7FEE7FEE7B1
:10011000FEE7FEE7FEE7FEE7FEE7FEE7CF33000877
:10012000ED000008202A04DB203A21FA02F0002129
:10013000704721FA02F3D040C2F1200291400843F7
:1001400019467047D2B201E000F8012B491EFBD2DC
:1001500070470022F6E710B513460A4604461946D2
:10016000FFF7F0FF204610BD2DE9F05F05460020A7
:1001700092469B4688460646814640241BE0284618
:10018000414647462246FFF7CDFF53465A46C01A1E
:10019000914110D311461846224600F029F82D1A35
:1001A00067EB01084F4622460120002100F020F8AD
:1001B00017EB00094E41201EA4F10104DFDC484684
:1001C00031462A464346BDE8F09F0000064C074DE5
:1001D00006E0E06840F0010394E807009847103417
:1001E000AC42F6D3FFF786FFD44A0008F44A000871
:1001F000202A04DB203A00FA02F1002070479140E7
:10020000C2F1200320FA03F3194390407047FEE740
:100210002DE9F04387B000241B4901940294039414
:100220000494096805940646009100F0CDFEDFF8BD
:100230005C80FF21054688F806104FF47A77E9467E
:100240000BE0012205A9124802F022F828B99DF816
:10025000141009F80410641CE4B200F0B5FE401B51
:100260003B46984201D2B442EBD30CB1B44203D224
:10027000FE2007B0BDE8F0839DF809009DF80B2033
:1002800088F80620F5E70000B84A000810000020B2
:100290003C05002070B500F097FE04464FF47A75D7
:1002A0000BE000BF03F03AF803F02CF80C20FFF746
:1002B000AFFF022801D098B90AE000F085FE001BCC
:1002C000A84203D202F092FE0F28EBD1022070BDAB
:1002D00003F024F802F0E6FF0C20FFF799FF08B1C5
:1002E000FE2070BD03F01AF803F000F8BDE870407E
:1002F0001020FFF78DBF0000F0B51449144A00200C
:100300000B784C788D78CE7891F8047000EB8001F2
:1003100012F801C0634512D1114491F801C064453F
:100320000DD191F802C0654509D191F803C0664529
:1003300005D109798F4202D1401CC0B2F0BD401CEA
:10034000C0B21E28E2D30020F0BD00002000002033
:100350001A06002070B50122094D140321462846D3
:1003600000F02BFE4FF47A7000F00FF800222146C7
:10037000284600F022FE03490020C87070BD00002E
:1003800000080140100000207047002103E000BF7A
:1003900000BF00BF491C8142F9D370470B4A00EBF4
:1003A000800310B51A44FF2102F8051D51709170A9
:1003B000D1701171064A0021104400F8011C00F0B0
:1003C000B3F8BDE8104003F0FBBA00001A060020A5
:1003D0007004002070B5044602F0A0FF204602F031
:1003E00015FF0C20FFF714FF4FF4FA65214648B1C2
:1003F00007A003F049FB00F07FF92846BDE87040F4
:1004000000F0FEBB0BA003F03FFB00F0C5F8F4E7E3
:1004100044454C4554452046494E47455220666167
:10042000696C656421212120617420494420256480
:10043000200D0A0044454C4554452046494E474549
:10044000522053756363657373206174204944209F
:100450002564200D0A00000070B5044632210020FA
:1004600002F05EFC01221D491DA002F063FD232164
:10047000282002F055FC6425642C03D20122174980
:10048000202005E0B4FBF5F03030C0B20122134962
:1004900002F000FD0A260A2C03D201220F49202077
:1004A00008E0B4FBF5F005FB1040B0FBF6F00122CC
:1004B0000A49303002F0EEFCB4FBF6F006FB1040C7
:1004C00001220649303002F0E5FC02F047FDBDE8AC
:1004D00070404FF47A7000F093BB000008000020D9
:1004E000584143204E48414E20544845202020206A
:1004F0002020000010B53221002002F011FC012262
:10050000034904A002F016FDBDE8104002F026BD2C
:1005100008000020544845204B484F4E4720484F84
:1005200050204C450000000010B53221002002F0A0
:10053000F7FB0122054906A002F0FCFC02F00EFDCB
:10054000BDE810404FF47A7000F05ABB080000205C
:1005500020202020444120584F412054484520006D
:1005600010B53221002002F0DBFB0122054906A074
:1005700002F0E0FC02F0F2FCBDE810404FF47A70AB
:1005800000F03EBB08000020202020204441204CE9
:10059000555520544845200010B53221002002F066
:1005A000BFFB0122034904A002F0C4FCBDE81040D7
:1005B00002F0D4BC08000020584F412056414E2084
:1005C000544159204F4B20202000000070B53221AB
:1005D000002002F0A5FB01221C491DA002F0AAFC8C
:1005E0002321282002F09CFB1E4C6425A07964285E
:1005F00003D201221549202005E0B0FBF5F0303090
:10060000C0B20122114902F045FCA0790A260A284D
:1006100003D201220D49202008E0B0FBF5F105FBD3
:100620001100B0FBF6F001220849303002F032FC34
:10063000A0790122B0FBF6F106FB1100034930302E
:1006400002F028FCBDE8704002F088BC08000020E1
:10065000584143204E48414E2056414E2054415966
:10066000202000001000002010B53221002002F0F0
:1006700057FB01220349044802F05CFCBDE810402E
:1006800002F06CBC08000020B006000810B5322152
:10069000002002F045FB0122034904A002F04AFCBD
:1006A000BDE8104002F05ABC080000204841492033
:1006B00056414E20544159204B484F4E47204B48FD
:1006C0004F50000010B53221002002F029FB01221A
:1006D000034904A002F02EFCBDE8104002F03EBC2D
:1006E0000800002044414E47204B592056414E20DF
:1006F000544159202000000010B53221002002F0A2
:100700000FFB0122034904A002F014FCBDE81040D5
:1007100002F024BC08000020434F204C4F492058D1
:1007200041592052412020200000000010B502F065
:10073000C3FA0021084602F0F3FA0122034904A09B
:1007400002F0F8FBBDE8104002F008BC08000020F1
:10075000202020484159204E484150204944000063
:1007600010B53221002002F0DBFA0122034904A077
:1007700002F0E0FBBDE8104002F0F0BB08000020F2
:1007800048415920445541205448452056414F0086
:1007900010B502F091FA0021084602F0C1FA0122D8
:1007A000114912A002F0C6FB0A21002002F0B8FA9B
:1007B00001220D4911A002F0BDFB1421002002F01E
:1007C000AFFA0122084911A002F0B4FB1E2100205B
:1007D00002F0A6FA0122044910A002F0ABFBBDE82A
:1007E000104002F0BBBB000008000020412E54481E
:1007F000454D2056414E205441590000422E584F3D
:10080000412056414E20544159000000432E544887
:10081000454D20544845205455000000442E584F63
:1008200041205448452054550000000010B502F006
:1008300043FA3221002002F073FA0122034904A096
:1008400002F078FBBDE8104002F088BB08000020F1
:10085000444154204E474F4E205441592056414F59
:100860002020000010B53221002002F059FA0122A8
:10087000034904A002F05EFBBDE8104002F06EBB2D
:1008800008000020444154204C4149204E474F4E1F
:10089000205441592020000010B53221002002F0E0
:1008A0003FFA0122034904A002F044FBBDE81040D6
:1008B00002F054BB080000204441204C55552056FE
:1008C000414E2054415920202000000010B5322113
:1008D000002002F025FA0122034904A002F02AFBBD
:1008E000BDE8104002F03ABB080000204841592002
:1008F000424F205441592052412020202000000026
:1009000010B502F0D9F90021084602F009FA0122D7
:10091000084909A002F00EFB0A21002002F000FAAB
:100920000122044909A002F005FBBDE8104002F0D5
:1009300015BB000008000020202020485420444916
:10094000454D2044414E48200000000044414E47A0
:10095000204B484F4920444F4E472E2E2E0000007A
:1009600010B502F0A9F90021084602F0D9F90122D8
:10097000084909A002F0DEFA0A21002002F0D0F9AD
:100980000122044909A002F0D5FABDE8104002F0A6
:10099000E5BA0000080000202020204854204449E7
:1009A000454D2044414E4820000000002042414D6A
:1009B00020232076616F204D656E752000000000B9
:1009C00006490020C8610648016941F0040101613F
:1009D000016941F04001016170470000B00600204C
:1009E00000200240064A0021D16106490A6942F00E
:1009F00002020A614861086940F0400008617047DE
:100A0000B006002000200240044B0022DA61044AB4
:100A1000136943F00103136101807047B0060020A1
:100A20000020024000201649CA6812F0100F154A33
:100A300004D0D06940F00200D0611020CB6813F0E0
:100A4000040F05D0D36943F00103D36140F00400E3
:100A5000CB6913F0010F07D0D36943F00403D361CE
:100A6000CA6922F00102CA61A0F58072013A01D080
:100A7000C8607047C86920F00100C8617047000075
:100A800000200240B006002070B5044600F09CFA39
:100A90000646164DE86810F0010F0ED0B4F1FF3F86
:100AA00007D024B100F090FA801BA04201D90320A6
:100AB00070BDE86810F0010FF0D1E86810F0200F69
:100AC00001D02020E860E86810F0100F07D1E86935
:100AD00010F0010F03D1E86810F0040F03D0FFF706
:100AE000A1FF012070BD002070BD00000020024069
:100AF00010B586B0044600F045F9002001210294AB
:100B00000090CDE9031004A9684600F08DF800F0CC
:100B1000E5F806B010BD0068C0B2704770B50C466D
:100B2000054600F02FF9224600232946012000F057
:100B3000DFF8BDE8704000F0D1B8000010B502F059
:100B4000EDFB02F0A3FB0E20FFF762FB08B1FF20D4
:100B500010BD0148807910BD1000002010B50024A0
:100B600090F82110022903D004218163012437E089
:100B700001680A6822F00E020A6001680A6822F021
:100B800001020A60174A0168914201D101211CE06B
:100B9000154A914201D1102117E0144A914201D126
:100BA000891512E0124A914201D189140DE0114ACF
:100BB000914202D14FF4803107E00F4A914202D1B5
:100BC0004FF4801101E04FF080710C4A5160012117
:100BD00080F82110002180F82010416B01B1884776
:100BE000204610BD080002401C00024030000240B8
:100BF00044000240580002406C00024000000240E5
:100C000070B5044600F0E0F90546B4F1FF3F02D0AC
:100C100004480078044400F0D7F9401BA042FAD3FE
:100C200070BD00005C0000202DE9F04705460F462E
:100C30004FF00109DFF89C8098F8180001280CD0CB
:100C4000012088F818002868234E022808D04CF2AA
:100C50005030FFF719FFA8B136E00220BDE8F08759
:100C60004CF25030FFF710FF28BB0120FFF7A8FE21
:100C70004CF25030FFF708FF8146306920F0040045
:100C8000306121E04FF0FF303860AC68E86804EB79
:100C90008020A04218D92046FFF7A4FE4CF2503025
:100CA000FFF7F2FE8146306920F0020030615FEA12
:100CB000090001D03C6007E004F58064E968A86899
:100CC00000EB8120A042E6D8002088F818004846B2
:100CD000BDE8F087B006002000200240034801690B
:100CE00041F08001016100207047000000200240B7
:100CF0002DE9F0470746884615461E460024DFF8D2
:100D00007C9099F81800012808D0012089F8180073
:100D10004CF25030FFF7B8FE18B129E00220BDE8D0
:100D2000F087012F1CD0022F1CD00427002F1FD9C1
:100D3000DFF84CA0220128463146FFF7F3F981B2D3
:100D400008EB4400FFF760FE4CF25030FFF79CFECA
:100D5000DAF8101021F00101CAF8101040B903E0D0
:100D60000127E3E70227E1E7611CCCB2BC42E1D3F3
:100D7000002189F81810BDE8F0870000B0060020B7
:100D800000200240002007490A6912F0800F08D0B5
:100D9000054A4A60054A4A60096911F0800F00D08F
:100DA000012070470020024023016745AB89EFCD49
:100DB0002DE9F84F4FF0000C00230A68002A7DD07F
:100DC000DFF8DC810F2708F1040909F1040A0AF1B0
:100DD000040B012202FA0CF60A683240B2426ED1CC
:100DE000DFF8C0E14C68A4EB0E0574452BD00DDC98
:100DF000032C34D005DC34B3012C19D0022C2FD1B4
:100E00001BE0112C16D0122C2AD119E0B5F5881F41
:100E100019D006DCB5F5803F15D0B5F5801F1FD180
:100E200011E0B5F5001F0ED0B5F5041F18D10AE08A
:100E3000CB6815E0CB681B1D12E0CB6808330FE0D0
:100E4000CB680C330CE08B6823B1012B04D0082352
:100E5000466105E0042303E00823066100E0002367
:100E6000B2F5807F01D2054601E000F1040502D20F
:100E70004FEA8C0403E0ACF108044FEA84042E68C6
:100E800007FA04FE26EA0E0603FA04F446EA04040E
:100E90002C604C6814F0805F79D0434CA56945F014
:100EA0000105A561A46904F0010400942CF0030479
:100EB00004F1804404F58034A66801E06EE066E049
:100EC0004FEA8C754FEA157507FA05FE26EA0E0EF5
:100ED000A0F18046B6F584361ED0A0F18046B6F566
:100EE00086361BD0A0F18046B6F5883618D0A0F122
:100EF0008046B6F58A3615D0042606FA05F545EA89
:100F00000E05A5604C6814F4803F0DD0D8F8004061
:100F10001443C8F800400CE00026EEE70126ECE799
:100F20000226EAE70326E8E7D8F800409443C8F829
:100F300000404C6814F4003F05D0D9F80040144339
:100F4000C9F8004004E0D9F800409443C9F80040D3
:100F50004C6814F4801F05D0DAF800401443CAF836
:100F6000004004E0DAF800409443CAF800404C68BE
:100F700014F4001F05D0DBF800402243CBF800201A
:100F800005E0DBF8004024EA0202CBF800200CF177
:100F9000010C0A6832FA0CF27FF41BAFBDE8F88F3F
:100FA0000004014000001110001002408068084257
:100FB00001D00120704700207047002A01D0016154
:100FC000704709040161704701488068704700005C
:100FD0005C00002070B50446002C04D094F83D005D
:100FE000002510B106E0012070BD84F83C50204679
:100FF00000F03AFA242084F83D002068016821F0CE
:10100000010101602068016841F40041016020682D
:10101000016821F40041016000F0C8FB544B616895
:10102000994203D85349884203D304E05249884285
:1010300001D2012070BD5149B0FBF1F12268D2F814
:1010400004C02CF03F0C4CEA010CC2F804C06268EA
:101050009A4201D84A1C07E04FF4967251434FF46C
:101060007A72B1FBF2F14A1C2168D1F820C02CF051
:101070003F0C42EA0C020A626168994210D84900AA
:10108000401EB0FBF1F2521CC2F30B02042A01D243
:10109000042026E0B0FBF1F0401CC0F30B0020E080
:1010A000A268002A50D001EBC10303EB0113A0F1A9
:1010B000010CBCFBF3F35B1C43F480431B051B0DCD
:1010C0004AD0002A4AD001EBC10202EB0111401EB6
:1010D000B0FBF1F0401CC0F30B0040F4804040F442
:1010E00000402168CA6922F0FF0222F44F421043F7
:1010F000C861216AE06901432068026822F0C002E9
:1011000011430160E168206901432068826822F090
:10111000FF0222F4034211438160A1696069014327
:101120002068C26822F0FF021143C1602068016894
:1011300041F0010101602564202084F83D00256311
:1011400084F83E50002070BD01EB4103A0F1010C7A
:10115000BCFBF3F35B1CB1E70120C2E701EB4101EB
:10116000401EB0FBF1F0401CC0F30B00B7E70000DD
:10117000A086010080841E0000093D0040420F004F
:101180002DE9F84F0446884692461E46FFF71CFF9D
:101190000546012794F83D00202802D00220BDE832
:1011A000F88F1923012256492046009501F02CFAA8
:1011B00010B10220BDE8F88F94F83C00012808D057
:1011C000012084F83C002068016811F0010F03D071
:1011D00006E00220BDE8F88F016841F001010160DE
:1011E0002068016821F400610160242084F83D003A
:1011F000002020644348E06208F0FE094FF0A00898
:101200004FF0200B2068016841F480710160334683
:1012100000224FF001112046009501F0F5F950B180
:101220002068006810F4807F02D04FF400702064C2
:101230000320BDE8F88F2068C0F81090FFF7C4FEC7
:10124000054620684169C1F340014069C0F3802030
:101250000EE0FFF7B9FE401BB04200D80EB984F88B
:101260003D8020684169C1F340014069C0F380209E
:1012700094F83D20A02A02D009B90028E9D084F8CA
:101280003DB02068416911F0020F1BD02168096848
:1012900041F4007101600026206841698069009076
:1012A0001923012216492046009501F0ADF910B12D
:1012B0000120BDE8F88F84F83DB084F83C60002040
:1012C000BDE8F88F016841F40071016021686FF496
:1012D000806048611923012209492046009501F0E8
:1012E00093F910B10120BDE8F88F7F1C574589D3D1
:1012F00084F83DB0002084F83C000120BDE8F88F60
:10130000020010000000FFFF2DE9F84F04468A4656
:10131000904699460A9FFFF757FE064694F83D000F
:10132000202802D00220BDE8F88F192301224C4961
:101330002046009601F068F910B10220BDE8F88F50
:1013400094F83C00012808D0012084F83C00206873
:10135000016811F0010F03D006E00220BDE8F88F0C
:10136000016841F0010101602068016821F4006119
:101370000160212084F83D00102084F83E00002503
:101380002564C4F82480A4F82A90608D208535480F
:10139000E06233463A465146204601F0ADF810B1BE
:1013A0000120BDE8F88F2068416980690090208D98
:1013B000002846D032463946204601F0E6F950B1C1
:1013C000206C042804D12068016841F40071016098
:1013D0000120BDE8F88F606A216800780861606AC2
:1013E00000F1010CC4F824C0608D401E6085208D82
:1013F000401E80B220852268516911F0040F0CD084
:1014000058B19CF800001061606A401C6062608DF9
:10141000401E6085208D401E20853246394620467C
:1014200001F0C4F850B1206C042804D12068016890
:1014300041F4007101600120BDE8F88F208D002883
:10144000B8D12068016841F400710160202084F85F
:101450003D0084F83E5084F83C500020BDE8F88FF1
:10146000020010000000FFFF10B586B000210091BF
:1014700001910291039100680F4988421AD10F4CE3
:10148000A06940F00800A061A069694600F008006A
:101490000490C0200090122001900320039008487F
:1014A000FFF786FCE06940F40010E061E06900F4B9
:1014B0000010049006B010BD00540040001002401F
:1014C000000C014002488168027811448160704735
:1014D0005C00002010B50748016841F01001016070
:1014E000032000F08BF8002000F006F800F026F84A
:1014F000002010BD0020024070B504460D4D4FF491
:101500007A712878B1FBF0F00B490968B1FBF0F073
:1015100000F04CFD08B1012070BD102C07D2002254
:101520002146501E00F036F86C60002070BD01208E
:1015300070BD00005C000020680000200C4808B569
:10154000816941F001018161816901F0010100912E
:10155000C16941F08051C161C06900F080500090C4
:101560000448416821F0E06141F00071416008BD2C
:10157000001002400000014000280ADB00F01F01BB
:10158000012202FA01F14009800000F1E020C0F8D8
:101590000011704710B4184B1B68C3F30223C3F14A
:1015A000070CBCF1040F01D94FF0040C1C1D072CD3
:1015B00001D2002300E0DB1E012404FA0CFCACF194
:1015C000010C0CEA0101994004FA03F35B1E1A4076
:1015D0001143002806DB00F1E020090180F8001427
:1015E00010BC704700F00F0000F1E020090180F806
:1015F000141D10BC704700000CED00E000F0070067
:10160000064A11684FF6FF03194041EA002040F0F6
:10161000FD7040F080601060704700000CED00E04D
:101620002DE9F04704460D46002C17D0DFF85C8109
:10163000D8F8000000F00700A84212D2D8F8000045
:1016400020F007002843C8F80000D8F8000000F098
:101650000700A84205D00120BDE8F0870120BDE8C1
:10166000F08720684A4E10F0020F14D010F0040FDB
:1016700003D0706840F4E0607060207810F0080FCC
:1016800003D0706840F460507060706820F0F00122
:10169000A06808437060207810F0010F3AD06068AD
:1016A000012806D002280BD0316811F0020F27D094
:1016B0000AE0316811F4003F06D10120BDE8F0874F
:1016C000316811F0007F18D0716821F003010843E0
:1016D0007060FFF779FC07467068616800F00C00E5
:1016E000B0EB810F16D041F28839FFF76DFCC01BBB
:1016F000484508D90320BDE8F0870120BDE8F08700
:101700000120BDE8F0877068616800F00C00B0EB64
:10171000810FEAD1D8F8000000F00700A8420FD9E5
:10172000D8F8000020F007002843C8F80000D8F8D7
:10173000000000F00700A84202D00120BDE8F087B9
:10174000207810F0040F05D07068E16820F4E060A4
:1017500008437060207810F0080F06D07068216987
:1017600020F4605040EAC100706000F03FF87168FA
:10177000084AC1F30311515CC84007490860074893
:101780000068FFF7B9FE0020BDE8F08700200240A6
:1017900000100240BC4A00086800002060000020E1
:1017A00001480068704700006800002000B5FFF79E
:1017B000F7FF04494968044AC1F30221515CC8405B
:1017C00000BD000000100240CC4A000800B5FFF741
:1017D000E7FF04494968044AC1F3C221515CC8408B
:1017E00000BD000000100240CC4A000885B015A0E2
:1017F000836842680168C068039302920191049073
:1018000014A000680090144B5968144801F00C02B1
:10181000042A11D0082A0FD101A8C1F38342805CA9
:1018200011F4803F0AD05968C1F340411DF80110FE
:101830000A4A5043B0FBF1F005B07047084905B0C3
:101840004843704702030405060708090A0B0C0DFC
:101850000E0F1010010200000010024000127A006A
:1018600000093D002DE9F84F0446002C0FD02078E8
:10187000F84D10F0010F6CD0686800F00C000428DF
:101880000CD0686800F00C00082803D010E001209C
:10189000BDE8F88F686810F4803F09D0286810F41C
:1018A000003F56D06068002853D10120BDE8F88F72
:1018B0006068B0F5803F15D0C8B1B0F5A02F1FD03B
:1018C000286820F480302860286820F48020286070
:1018D000606858B3FFF778FB0646286810F4003FAD
:1018E00017D036E0286840F480302860F0E7286898
:1018F00020F480302860286820F480202860E7E702
:10190000286840F480202860286840F480302860EF
:10191000DEE7FFF759FB801B642802D90320BDE8EE
:10192000F88F286810F4003FF3D012E0FFF74CFB6B
:101930000646286810F4003F0BD0FFF745FB801BDC
:10194000642802D90320BDE8F88F286810F4003F0E
:10195000F3D12078C04F10F0020F4FF0010B4FF081
:10196000000854D0686810F00C0F14D0686800F0BC
:101970000C00082803D1686810F4803F0BD0206960
:1019800078B3C7F800B0FFF71FFB0646286810F0D1
:10199000020F12D01DE0286810F0020F05D0206958
:1019A000012802D00120BDE8F88F2868616920F085
:1019B000F80040EAC100286029E0FFF705FB801B22
:1019C000022802D90320BDE8F88F286810F0020F22
:1019D000F3D02868616920F0F80040EAC10028606F
:1019E00015E0FFE7C7F80080FFF7EEFA0646286823
:1019F00010F0020F0BD0FFF7E7FA801B022802D984
:101A00000320BDE8F88F286810F0020FF3D120788A
:101A100010F0080F30D09148A169C1B1C0F800B0F2
:101A2000FFF7D2FA0646686A10F0020F0BD1FFF7F3
:101A3000CBFA801B022802D90320BDE8F88F686A20
:101A400010F0020FF3D0012000F0ACFF14E0C0F85A
:101A50000080FFF7B9FA0646686A10F0020F0BD053
:101A6000FFF7B2FA801B022802D90320BDE8F88FE5
:101A7000686A10F0020FF3D1207810F0040F6FD0D5
:101A80000026E86910F0805F08D1E86940F08050D6
:101A9000E861E86900F0805000900126DFF8C0A1FD
:101AA000DAF8000010F4807F1BD1DAF8000040F46F
:101AB0008070CAF80000FFF787FA8146DAF8000064
:101AC00010F4807F0DD1FFF77FFAA0EB09006428A6
:101AD00002D90320BDE8F88FDAF8000010F4807F07
:101AE000F1D0E068012816D0D0B1052821D0286AAD
:101AF00020F001002862286A20F004002862E068D3
:101B000041F2883A68B3FFF75FFA8146286A10F01D
:101B1000020F17D03AE0286A40F001002862EEE791
:101B2000286A20F001002862286A20F00400286258
:101B3000E5E7286A40F004002862286A40F00100C6
:101B40002862DCE7FFF740FAA0EB0900504502D914
:101B50000320BDE8F88F286A10F0020FF2D015E0DC
:101B60001AE0FFE7FFF730FA8146286A10F0020F0B
:101B70000CD0FFF729FAA0EB0900504502D9032049
:101B8000BDE8F88F286A10F0020FF2D1012E03D1C0
:101B9000E86920F08050E861E069E8B3696801F025
:101BA0000C0108295ED0022810D0C7F86080FFF72A
:101BB0000BFA0446286810F0007F66D0FFF704FA9D
:101BC000001B022841D90320BDE8F88FC7F86080C8
:101BD000FFF7FAF90646286810F0007F0BD0FFF7F0
:101BE000F3F9801B022802D90320BDE8F88F28688A
:101BF00010F0007FF3D1206AB0F5803F05D168680E
:101C0000A16820F4003008436860616A206A0843D4
:101C1000696821F4741100E037E008436860C7F890
:101C200060B0FFF7D1F90446286810F0007F2CD18E
:101C3000FFF7CAF9001B022802D90320BDE8F88F7C
:101C4000286810F0007FF3D01FE0286810F0007FB4
:101C5000B4D11AE000100240000042428004424227
:101C60000070004001280DD06868226A00F48031BD
:101C7000914204D1616A00F47010884205D00120BD
:101C8000BDE8F88F0120BDE8F88F0020BDE8F88F8F
:101C900070B50446002C09D0606A002540B125616A
:101CA0006561A56294F8510040B10CE0012070BD5F
:101CB0006068B0F5827FF4D0E561F2E784F85050B7
:101CC000204600F03FF8022084F8510020680168A7
:101CD00021F040010160A088218900F4827001F4A4
:101CE00004410843A18901F400610843217C01F00B
:101CF00002010843217D01F001010843218B01F419
:101D000000710843217F01F03801084394F8201046
:101D100001F080010843218D01F40051084321683E
:101D20000860A169042000EA114021684860206829
:101D3000C16921F40061C1616565012084F8510029
:101D4000002070BD30B585B0002400940194029449
:101D5000039400681449884223D11448816941F4EE
:101D600080518161816901F480510491816941F060
:101D70000401816180690E4D00F004000490A020F0
:101D80000090022001900320039069462846FFF747
:101D90000FF84020CDE90004694628460294FFF779
:101DA00007F805B030BD00000030014000100240CF
:101DB000000801402DE9F84F04460A9E8A469346E2
:101DC0001F4601254FF0000894F8500001280ED05E
:101DD000012084F85000FFF7F7F8814694F851008D
:101DE000616801280ED0B1F5827F07D102E00220A0
:101DF000BDE8F88FA16809B9042803D04FF00208A4
:101E000000F0CBB8BAF1000F1DD0BBF1000F1AD013
:101E1000380018D094F85100042802D0052084F826
:101E2000510000206065C4F838B0E787A787C4F880
:101E300030A0E786A786206460642068016811F0FE
:101E4000400F03D006E04FF00108A6E0016841F022
:101E500040010160E068B0F5006F05D060680028BF
:101E600048D0012F46D07EE0606808B1012F3AD1FA
:101E7000206B21680088C860206B801C2063E08E86
:101E8000401EE0862FE02068816811F0020F0DD01F
:101E9000E18E59B1012D09D1216B0988C160206BF8
:101EA000801C2063E08E401EE0860025206881684B
:101EB00011F0010F0BD0E18F49B1C068A16B088010
:101EC000A06B801CA063E08F401EE0870125FFF718
:101ED0007BF8A0EB0900B04205D3B6F1FF3F02D07A
:101EE0004FF0030859E0E08E0028CCD1E08F0028A5
:101EF000C9D13EE0206B216800780873206B401C3C
:101F00002063E08E401EE0862DE02068816811F09D
:101F1000020F0DD0E18E59B1012D09D1216B097845
:101F20000173206B401C2063E08E401EE08600257C
:101F30002068816811F0010F0BD0E18F49B1C068B2
:101F4000A16B0870A06B401CA063E08F401EE0876F
:101F50000125FFF739F8A0EB0900B04202D3B6F132
:101F6000FF3F11D186B1E08E0028CED1E08F00284E
:101F7000CBD14A463146204600F01FFE38B14FF023
:101F800001082020606508E04FF0030805E0A06824
:101F900018B92068C16880680090012084F8510059
:101FA000002084F850004046BDE8F88F401EB0F194
:101FB000807F01D3012070474FF0E0214861044A3F
:101FC000F020107000208861072008610020704711
:101FD00023ED00E07047000010B504462268106849
:101FE000D168526900F00F03002B0AD110F0200FC6
:101FF00007D011F0200F04D02046BDE8104001F0BA
:10200000BEBB002B71D002F0010301F4907C53EAB7
:102010000C0C6AD010F0010F08D011F4807F05D0AD
:10202000D4F83CC04CF0010CC4F83CC010F0040FD4
:1020300008D012F0010F05D0D4F83CC04CF0020CCF
:10204000C4F83CC010F0020F06D012F0010F03D00C
:10205000E26B42F00402E26310F0080F07D001F0D7
:1020600020021A4303D0E26B42F00802E263E26B03
:10207000002A2ED010F0200F05D011F0200F02D032
:10208000204601F07CFB20684069C0F38010E16BC2
:1020900011F0080F00D108B3204601F055FB20686D
:1020A000416911F0400F15D0416921F040014161B3
:1020B000606B58B118494163606BFEF74FFD002813
:1020C00007D0606B416BBDE8104008472046FFF722
:1020D00081FF10BD2046FFF77DFF10BD2046FFF7B2
:1020E00079FF0020E06310BDFFE710F0800F07D0FC
:1020F00011F0800F04D02046BDE8104001F0ECBB89
:1021000010F0400FEFD011F0400FECD02046BDE8AA
:10211000104001F027BB00003937000870B50446B5
:10212000002C04D094F83900002510B106E00120FD
:1021300070BD84F83850204600F022F8242084F83E
:1021400039002068C16821F40051C160204601F0C7
:102150005FFB2068016921F49041016120684169B9
:1021600021F02A0141612068C16841F40051C16039
:10217000E563202084F8390084F83A00002070BD1F
:10218000F0B585B000240094019402940394036890
:10219000394F022039490322394D4602BB421AD138
:1021A0008B6943F480438B618B6903F48043049310
:1021B0008B6943F004038B618969039201F0040188
:1021C00004910102CDE9001069462846FEF7F0FDB2
:1021D000CDE900644AE02B4FBB4229D1CB6943F4DF
:1021E0000033CB61CB6903F4003304938B6943F074
:1021F00004038B618969039201F0040104910421B5
:10220000CDE9001069462846FEF7D2FD0820CDE949
:102210000004694628460294FEF7CAFD00221146D2
:102220002620FFF7B7F92620FFF7A6F905B0F0BD85
:10223000154DAB42FAD1CB6943F48023CB61CB6916
:1022400003F4802304938B6943F008038B6189694D
:102250000E4D01F00801CDE90321CDE9006069468A
:102260002846FEF7A5FDE814CDE900046946284696
:102270000294FEF79DFDD9E70038014000100240AE
:10228000000801400044004000480040000C0140AC
:102290002DE9F84304460E4615461F4694F83A00C9
:1022A000202802D00220BDE8F883C6B1BDB194F861
:1022B0003800012816D0012084F838004FF00009BA
:1022C000C4F83C90222084F83A00FEF77DFE804658
:1022D000A585E585A068B0F5805F06D007E0012000
:1022E000BDE8F8830220BDE8F883206980B1354657
:1022F000002684F83890E08D40B343460022202128
:102300002046009701F017FB20B10320BDE8F883B9
:102310000025EEE72DB1A068B0F5805F1CD038B184
:1023200008E020684068C0F308003080B61C07E071
:10233000206988B12068406800F07F0028706D1C1B
:10234000E08D401EE085E08D0028D6D1202084F865
:102350003A000020BDE8F883206840682870EEE766
:1023600090F83A30202B01D002207047F9B1F2B139
:1023700090F83830012B1CD081628285C285002103
:10238000C163222280F83A2080F838100168CA68B8
:1023900042F48072CA6001684A6942F001024A61EF
:1023A0000068C16841F02001C16000207047012031
:1023B000704702207047000010B501220C490D48FB
:1023C000FFF7CEFF0A4800230278001FFE2A0AD03A
:1023D000FD2A0AD0074C417894346254491CC9B292
:1023E00041700A2900D1437010BD0121017010BD58
:1023F000140000207C0500202DE9F84304460E4619
:1024000015461F4694F83900202802D00220BDE866
:10241000F883C6B1BDB194F83800012816D0012068
:1024200084F838004FF00009C4F83C90212084F86B
:102430003900FEF7C9FD8046A584E584A068B0F5A3
:10244000805F06D007E00120BDE8F8830220BDE8E8
:10245000F883206980B13546002684F83890E08CF6
:10246000B8B14346002280212046009701F063FA6C
:1024700020B10320BDE8F8830025EEE7A5B121686F
:10248000287848606D1CE08C401EE084E08C0028B9
:10249000E7D14346002240212046009701F04BFA45
:1024A00048B10320BDE8F88330882168C0F30800F4
:1024B0004860B61CE7E7202084F839000020BDE81A
:1024C000F8837047FEE701684A6912F4806F11D003
:1024D0006FF480624A6100210163202280F83D2070
:1024E00080F83E10026C42F00402026480F83C1056
:1024F0000120704700207047F8B504460D46174686
:102500001E46E06A082808D0012806D010F5803F52
:1025100003D0206B122806D00AE02068016841F43D
:102520008071016004E02068016841F480710160FD
:102530003B4600224FF001112046009600F064F85F
:1025400048B12068006810F4807F02D04FF400701A
:1025500020640320F8BD2069B0F5804F0FD005F44A
:102560004070F02141EAD0102168086133463A46B4
:102570000C49204600F0A2F830B10120F8BD2168D6
:1025800005F0FE00086102E02168E8B20861334608
:102590003A460549204600F091F808B10120F8BDFF
:1025A0000020F8BD080001000200010070B50446DB
:1025B0000D4616462068406910F0040F13D12046DE
:1025C000FFF781FF08B1012070BDB5F1FF3F05D0D5
:1025D000FEF7FAFC801BA84207D835B12068406995
:1025E00010F0040FEBD0002070BD002020632021EC
:1025F00084F83D1084F83E00216C41F020012164F4
:1026000084F83C00012070BD2DE9F0470446DDF858
:1026100020900D4617461E46C5F307482068B8F1BE
:10262000010F22D0806925EA00000004000C26D0AA
:102630000020B84216D1B6F1FF3F06D0FEF7C4FC29
:10264000A0EB0900B0421CD8DEB1B8F1010F28D0D0
:102650002068806925EA00000004000C2CD00020CE
:10266000B842E8D00020BDE8F087406925EA0000C4
:102670000004000C01D00020DBE70120D9E7012095
:10268000D7E700202063202184F83D1084F83E0025
:10269000216C41F02001216484F83C000120BDE858
:1026A000F0872068406925EA00000004000C01D092
:1026B0000020D5E70120D3E70120D1E72DE9F0473D
:1026C00004460D4616461F46C5F307482068B8F174
:1026D000010F26D0806925EA00000004000C3AD0E2
:1026E0004FF000094FF0200A2068406910F4806F15
:1026F0001ED02068016841F40071016021686FF408
:1027000080604861C4F8309084F83DA084F83E9021
:10271000206C40F00400206484F83C900120BDE867
:10272000F087406925EA00000004000C13D0D7E7C9
:10273000B6F1FF3F05D0FEF747FCC01BB0420DD8F5
:1027400066B1B8F1010F18D02068806925EA000051
:102750000004000CC8D10020BDE8F087C4F8309018
:1027600084F83DA084F83E90206C40F02000206466
:1027700084F83C900120BDE8F0872068406925EA94
:1027800000000004000CAFD1E5E770B504460D462B
:1027900016462068406910F0800F13D12046FFF7DD
:1027A00092FE08B1012070BDB5F1FF3F05D0FEF7E4
:1027B0000BFC801BA84207D835B12068406910F097
:1027C000800FEBD0002070BD00202063202184F812
:1027D0003D1084F83E00216C41F02001216484F812
:1027E0003C00012070BD00002DE9F04F85B00024B1
:1027F00036480094019402940394816941F01001D9
:102800008161816901F010010491816941F0200129
:102810008161816901F020010491816941F0040125
:102820008161816901F004010491816941F008012D
:1028300081618069DFF8989000F008004FF400553E
:102840000490002229464846FEF7B7FBDFF884A033
:1028500041F21007002239465046FEF7AEFBDFF882
:1028600078B04FF21008002241465846FEF7A5FB0B
:102870000095022601250396CDE901546946484694
:10288000FEF796FA03208DE8310069465046FEF7C0
:102890008FFA00970396CDE9015469465046FEF73A
:1028A00087FACDF800800396CDE901546946584671
:1028B000FEF77EFA4FF448708DE8310069465846BD
:1028C000FEF776FA05B0BDE8F08F00000010024078
:1028D0000010014000080140000C01400B480A496B
:1028E0004FF4007201604FF48271416000218160F9
:1028F000C1600161C0E90512C1610162416281628A
:102900000A21C162FFF7C4B900300140E40400208D
:10291000FEE7704770B50122094D14032146284691
:10292000FEF74BFB40F63400FDF72FFD0022214659
:102930002846FEF742FB03490120C87070BD000025
:1029400000080140100000207047000070B50446E8
:10295000FDF7B8FE4FF47A752846FEF751F9204688
:1029600000F0CCF8040009D00A2C15D0FDF7C4FE05
:102970004FEA0500FEF744F9204670BDFDF78CFFD5
:102980000748C179491CC9B2C171642901D101212B
:10299000C17140F2DC50EDE7FDF778FEE8E700009A
:1029A0001000002081B007494FF4FA520968B1FBCA
:1029B000F2F14843009000BF0098411E0091FAD206
:1029C00001B07047680000202DE9F05F36A001F0EB
:1029D0005BF8394D00244FF496766019FEF79BF8AA
:1029E000014636A001F050F8641CB442F5DB35A076
:1029F00001F04AF8384E002405EB4400FEF78BF84E
:102A0000305501462DA001F03FF8641C1E2CF3DB6D
:102A100032A001F039F8DFF8A080344F08F16408E3
:102A2000002408F1010908F1020A08F1030B611CF6
:102A30002FA001F029F804EB440508EB4500FEF750
:102A40006AF804EB84060146B8551CA001F01CF896
:102A500009EB4500FEF75FF83E440146707017A091
:102A600001F012F80AEB4500FEF755F8B070014688
:102A700012A001F009F80BEB4500FEF74CF8F070DE
:102A800001460EA001F000F80B48683000EB45004D
:102A9000FEF741F83071014608A000F0F5FF641C14
:102AA0001E2CC4DBBDE8F09F464C415348204441F6
:102AB00054413A200D0A000010F801082530325820
:102AC000200000000D0A4341524420535441545504
:102AD00053200D0A00000000700400200D0A43413D
:102AE00052442044415441200D0A00001A0600209F
:102AF0000D0A434152442025643A200070B5054632
:102B0000FEF762FA0646FDF791FE41F288340AE0CC
:102B100000F004FC00F0F6FB0C20FDF779FB022826
:102B200001D058BB05E0FEF74FFA801BA042EFD35F
:102B300041E000F0F3FB00F0B5FB0C20FDF768FB73
:102B4000E0B9FDF7C3FE4FF4FA60FEF759F8FEF75F
:102B50003BFA0646FDF786FE0BE000BF00F0DEFB09
:102B600000F0D0FB0C20FDF753FB022801D028B960
:102B700005E0FEF729FA801BA042EFD31BE000F02E
:102B8000CDFB00F09BFB0C20FDF742FB98B900F059
:102B9000C5FB00F09FFB0C20FDF73AFB0A280BD089
:102BA00048B900F0BBFB284600F0C4FB0C20FDF741
:102BB0002FFB002800D0FE2070BD38B504460B4620
:102BC000009200228021204600F00AF828B1606DB2
:102BD00040F020006065032038BD002038BD0000B3
:102BE0002DE9F84304460F4690469946089DFEF7A6
:102BF000EBF9401BA9EB0005FEF7E6F906462D4868
:102C00000068C0F3CB30684300902068806837EAE2
:102C100000000ED00020404546D0B9F1FF3F3BD028
:102C2000FEF7D2F9801BA84205D225B1009870B3F7
:102C30002FE00120EFE72068416821F0E0014160CA
:102C40006068B0F5827F0BD1A068B0F5004F02D06C
:102C5000B0F5806F04D12068016821F04001016067
:102C6000A06AB0F5005F09D12068016821F4005125
:102C700001602068016841F400510160012084F87E
:102C80005100002084F850000320BDE8F883FFE7DE
:102C900000250098401E00902068806837EA0000F8
:102CA00005D000204045B8D10020BDE8F8830120C0
:102CB000F8E700006800002010B5002000F024F8BC
:102CC000BDE8104000F04AB970B5802813D2402901
:102CD00011D20B4B012401F007051E79AC40094BC2
:102CE000C90800EBC1100EB132B101E0012A03D0D6
:102CF000195CA143195470BD195C2143FAE7000027
:102D0000000000207000002028B1FF224FF48061F5
:102D10000248FDF717BA0022F8E700007000002013
:102D2000014A1080518070470000002010B501F06A
:102D3000DBFA44F62063012278215448FEF720FA9A
:102D400008B1002010BD40F6C210401EFDD1AE22D9
:102D50000021782001F0CEFA20220021782001F015
:102D6000C9FA10220021782001F0C4FAB022002113
:102D7000782001F0BFFAC8220021782001F0BAFAC9
:102D800000221146782001F0B5FA102200217820A7
:102D900001F0B0FA40220021782001F0ABFA812244
:102DA0000021782001F0A6FAFF220021782001F00E
:102DB000A1FAA1220021782001F09CFAA62200218C
:102DC000782001F097FAA8220021782001F092FAE9
:102DD0003F220021782001F08DFAA42200217820E2
:102DE00001F088FAD3220021782001F083FA002232
:102DF0001146782001F07EFAD5220021782001F0DA
:102E000079FAF0220021782001F074FAD922002109
:102E1000782001F06FFA22220021782001F06AFA6E
:102E2000DA220021782001F065FA122200217820B0
:102E300001F060FADB220021782001F05BFA202209
:102E40000021782001F056FA8D220021782001F02F
:102E500051FA14220021782001F04CFAAF2200210F
:102E6000782001F047FA2E220021782001F042FA62
:102E70000020FFF749FF00F071F8054800210180AC
:102E8000418001214171084610BD000090040020DE
:102E9000000000202DE9F047814625480D46924666
:102EA00001882A781144802905D2804640886978B3
:102EB0000844402802D30020BDE8F08700262AE01D
:102EC000A9F1200101FB00606A68002432F810704B
:102ED0001DE000BF07FA04F0000409D5B8F802109D
:102EE000B8F800003144204489B280B252460BE069
:102EF000BAF1000F1AD00022B8F80210B8F800009A
:102F00003144204489B280B2FFF7DEFE641C287889
:102F1000A042DFD8761C6878B042D1D8B8F800104B
:102F20002A7848461144A8F80010C5E70122E3E7D3
:102F30000000002070B515460E46044609E02A46FA
:102F40003146FFF7A7FF2178884201D0C8B270BD93
:102F5000641C20780028F2D1C0B270BD70B5104D4D
:102F6000002400BF04F1B000C2B20021782001F0BB
:102F7000C1F900221146782001F0BCF9102200218D
:102F8000782001F0B7F905EBC412802340217820A6
:102F900001F0C0F9641CE4B2082CE3D370BD00005A
:102FA000700000207047000010B50D490D4A00EB7D
:102FB000800422440B7802F8053D4B7853708B78DF
:102FC0009370CB78D37009791171074A01211044AD
:102FD00000F8011CFDF7C4FABDE8104000F0F0BC99
:102FE000200000201A060020700400202DE9F05F68
:102FF0000122844C170339462046FDF7DEFF4FF4CB
:103000000058012241462046FDF7D7FF4FF4804A81
:10301000012251462046FDF7D0FF4FF4004B01221C
:1030200059462046FDF7C9FF002239462046FDF7E4
:10303000C4FF754D01212846FDF7B8FF00287DD05B
:1030400002212846FDF7B2FF002878D066153146E8
:103050002046FDF7ABFF002872D04FF48079494637
:103060002046FDF7A3FF00286BD0012239462046F9
:10307000FDF7A3FF002241462046FDF79EFF0121F8
:103080002846FDF793FF00287AD002212846FDF755
:103090008DFF00287CD031462046FDF787FF0028B1
:1030A0007BD04F4649462046FDF780FF002879D067
:1030B000012241462046FDF780FF0022514620466E
:1030C000FDF77BFF01212846FDF770FF002870D037
:1030D00002212846FDF76AFF00286FD0B04631462E
:1030E0002046FDF763FF00286DD039462046FDF7E6
:1030F0005DFF00286CD0012251462046FDF75DFFA0
:1031000000225E4659462046FDF757FF012128461A
:10311000FDF74CFF58B302212846FDF747FF40B3A7
:1031200041462046FDF742FF78B339462046FDF779
:103130003DFF60B301223146204603E007E00BE08B
:103140000FE018E0FDF739FF1020BDE8F09FFA20EE
:10315000FDF756FD0E20F8E7FA20FDF751FD00209F
:10316000F3E7FA20FDF74CFD0F20EEE708E034E02E
:103170000EE037E011E0FA20FDF742FD0D20E4E714
:10318000FA20FDF73DFD0720DFE730E00AE033E0FD
:10319000FA20FDF735FD0820D7E7FA20FDF730FDCE
:1031A0000920D2E7FA20FDF72BFD0C20CDE700E047
:1031B00004E0FA20FDF724FD0420C6E7FA20FDF71D
:1031C0001FFD0520C1E7FA20FDF71AFD0620BCE728
:1031D000FA20FDF715FD0B20B7E7FA20FDF710FDEB
:1031E0000120B2E7FA20FDF70BFD0220ADE7FA203F
:1031F000FDF706FD0320A8E7FA20FDF701FD0A20F0
:10320000A3E70000000C0140000801403EB5002289
:10321000009201218DF8001007248DF80120531C25
:103220008DF8024023440C248DF803402344040A03
:1032300001928DF80440C0B28DF805002344184473
:103240008DF80620104402928DF807100844010AF8
:103250008DF808108DF809004FF47A730A22694638
:103260000148FFF7C9F83EBD3C050020064AFE2391
:10327000137050709170D37003494FF47A73042225
:10328000A1F18000FFF7B8B8FC0500204FF47A7375
:10329000062202490248FFF7AFB800003D000020B7
:1032A0003C0500204FF47A73072202490248FFF7D9
:1032B000A3B80000430000203C0500204FF47A73BF
:1032C000072202490248FFF797B800004A00002091
:1032D0003C0500204FF47A73062202490248FFF7AA
:1032E0008BB80000310000203C0500204FF47A73B9
:1032F0000B2202490248FFF77FB80000510000206E
:103300003C0500204FF47A73062202490248FFF779
:1033100073B800002B0000203C0500204FF47A73A6
:10332000062202490248FFF767B800002500002086
:103330003C0500200EB500220121009201928DF87B
:10334000001002928DF80120531C06228DF80220F5
:1033500013448DF803201A448DF804101144020A16
:103360008DF805201144C0B28DF806000844010A0A
:103370008DF807108DF808004FF47A73092269461A
:103380000148FFF739F80EBD3C050020FEF79AB85A
:1033900030B58FB028216846FCF7DBFE14210AA85F
:1033A000FCF7D7FE01252804CDE90050002407943E
:1033B0006846FEF757FA0F200A90CDE90B540D949A
:1033C00000210AA80E94FEF72BF90FB030BD70470C
:1033D00010B5142000F0AEF8800705D10321BDE838
:1033E0001040142000F0DDB810BD7CB50446002567
:1033F00029460D2000F06CF9932020702020607089
:1034000001A823460090022219460C2000F0D5F8AE
:10341000010009D1225C401C5540C0B20428F9D3F8
:10342000205CA84200D0022108467CBD2DE9F04175
:103430000E46074615460421052000F036F8802187
:103440000A2000F0AEF8002405E0395D092000F004
:103450003FF9641CE4B2B442F7D30321012000F029
:1034600037F9FF24052000F065F8641E14F0FF040E
:1034700001D04007F6D5222000F05CF8287021200A
:1034800000F058F86870BDE8F08170B50546014657
:10349000262000F06BF8040003D12846FFF7A5FFB3
:1034A000044600F00EF8204670BD70B50C46054687
:1034B00000F040F820EA04012846BDE8704000F022
:1034C00007B90EB550208DF8040000208DF80500D6
:1034D0000DF10602022101A8FFF7A8FF02A801AB27
:1034E0000090042219460C2000F067F80EBD10B5BC
:1034F00000F053F88D212A2000F0EAF83E212B201D
:1035000000F0E6F81E212D2000F0E2F800212C202A
:1035100000F0DEF87021262000F0DAF840211520B6
:1035200000F0D6F83D21112000F0D2F8BDE810409F
:10353000FFF74EBF70B50C4D0446002210212846FF
:10354000FDF73BFD7E2000EA440040F0800000F0E3
:10355000D9F8002000F0D6F80446012210212846B0
:10356000FDF72BFD204670BD000801407CB50C46E0
:10357000054607210D2000F0ABF8257001A8234671
:103580000090012219460C2000F017F818B9BDF878
:103590000410102900D002207CBD0F21012000F072
:1035A00097B870B50C460546FFF7C4FF40EA040122
:1035B0002846BDE8704000F08BB82DE9FF5F00277A
:1035C0000226DDF838A015468B468146B8460C2801
:1035D00005D0B9F10E0F05D11227102001E0772791
:1035E0003020804647F08001022000F071F88021F1
:1035F0000420FFF75AFF80210A20FFF7D2FF0021A5
:10360000012000F065F8002406E01BF804100920F2
:1036100000F05EF8641CA4B2AC42F6D34946012027
:1036200000F056F8B9F10C0F03D180210D20FFF7FF
:10363000B8FF4FF4FA650420FFF77CFF6D1E2D04E0
:1036400004462D0C04D0E00702D114EA080FF2D092
:1036500080210D20FFF729FF35B10620FFF76AFF13
:1036600010F01B0F04D0022604B03046BDE8F09FD6
:1036700000263C40E00700D00126B9F10C0FF3D141
:103680000A20FFF757FF04460C20FFF753FF10F006
:1036900007004FEAC40104D008390844AAF8000022
:1036A00001E0AAF8001024B1102C04D91024002540
:1036B00003E00124FBE7002506E00920FFF73AFFBD
:1036C000039948556D1CADB2A542F6D3CCE7000076
:1036D00070B50B4D0E460446002210212846FDF71A
:1036E0006CFC7E2000EA440000F00CF8304600F04C
:1036F00009F82846BDE8704001221021FDF75DBCA5
:10370000000801403EB50B4C8DF80400206881682C
:103710008907FCD50A200090012302AA01A90548C7
:10372000FEF748FB206881680906FCD49DF8080074
:103730003EBD0000E404002010B5406A0021C185B0
:10374000C184FEF747FC10BD0168CA6822F490727C
:10375000CA6001684A6922F001024A61202180F8AA
:103760003A10704710B50168CA6822F04002CA607A
:10377000202180F83910FEF7A4FE002010BD10B5FE
:1037800090F83A10222901D0022010BD8268B2F5CB
:10379000805F01D1016929B1816AB2F5805F1DD0D6
:1037A00052B10BE0816A02685268C2F308020A80D3
:1037B000816A891C816209E002697AB102685268F3
:1037C00002F07F020A70816A491C8162C18D491E24
:1037D0000904090CC18505D0002010BD026852689B
:1037E0000A70F0E70168CA6822F02002CA60016826
:1037F000CA6822F48072CA6001684A6922F0010234
:103800004A61202180F83A10FEF7D6FD002010BD55
:1038100070B5044620680169E26821F44051114303
:1038200001612169A0680843616901432068C26899
:1038300022F4037222F4A0521143C160206841694E
:10384000A26921F44071114341612068A0F18041D7
:10385000B1F59C313AD0FDF7A9FF00EBC00101EBB7
:10386000001061681B4A8900B0FBF1F3A2FB03530F
:10387000B0FBF1FC5B096FF018056B430CEB8303A5
:103880004FF0320C0CEB0313A2FB03535B0903F064
:10389000F005B0FBF1F3A2FB03635B0905EB031337
:1038A000B0FBF1F5B0FBF1F0A2FB001040096FF0A6
:1038B0001801484305EB80000CEB0010A2FB001040
:1038C0002168C0F343101844886070BDFDF77EFF87
:1038D000C3E700001F85EB5190F83910212901D072
:1038E000022070478168B1F5805F01D1016961B143
:1038F000016A4A1C0262026809785160C18C491E43
:103900000904090CC1840AD013E0016A026809881D
:10391000C1F308015160016A891C0162EEE7016888
:10392000CA6822F08002CA600068C16841F04001A4
:10393000C160002070472DE9F0410446069D88468D
:1039400017461E462068006838EA000020D0002094
:10395000B84227D1B5F1FF3F1CD025B1FDF734FBAC
:10396000801BA84216D92068C16821F4D071C160BB
:103970002068416921F001014161202084F839006B
:1039800084F83A00002084F838000320BDE8F08174
:103990000120DDE72068006838EA000005D000203B
:1039A000B842D7D00020BDE8F0810120F8E7000040
:1039B0000148FEF711BB00007C050020FEE7000077
:1039C0002DE9F05F23A000F05FF8274D2846FDF7B2
:1039D0008FF826A000F058F8294E002405EB44008B
:1039E000315DFDF79BF8641CE4B21E2CF6D3DFF8C2
:1039F0007890DFF8908009F1640900244FF6FF7792
:103A000009F1020A09F1040B04EB840101EB08053A
:103A100018F801006A7804EB440607EA0222104411
:103A200081B209EB4600FDF779F8E878A97807EA52
:103A30000020084481B20AEB4600FDF76FF82979AF
:103A40000BEB4600FDF76AF8641CE4B21E2CDBD3D6
:103A5000BDE8F09F44616E6720786F6120666C61FD
:103A600073682E2E2E200A0010F8010844616E673C
:103A7000206C757520746865202E2E2E200A00009B
:103A8000700400201A0600200FB4054B10B503A9DE
:103A9000044A029800F018F810BC5DF814FB00000E
:103AA0002D3F00086C00002002E008C8121F08C16A
:103AB000002AFAD170477047002001E001C1121FAF
:103AC000002AFBD1704700002DE9FF4F8DB00F4653
:103AD0000546002606E025280BD0DDE90F129047A9
:103AE0006D1C761C28780028F5D111B03046BDE851
:103AF000F08F0024A246A1460122EC4900E00443D5
:103B000015F8013F203B02FA03F00842F7D128786C
:103B10002A2810D06FF02F022878A0F1300109294F
:103B200014D80AEB8A0102EB410144F0020400EBD5
:103B3000010A6D1CF0E701CF5FEA000A03D544F4E7
:103B40000054CAF1000A44F002046D1C28782E28A3
:103B500017D115F8010F44F004042A280ED06FF095
:103B60002F022878A0F1300109290AD809EB890130
:103B700002EB410100EB01096D1CF2E757F8049BD1
:103B80006D1C28786C280FD006DC4C2817D06828CC
:103B90000DD06A2814D104E0742810D07A280FD1EF
:103BA0000DE044F400140AE044F4801401E044F40D
:103BB00040146978814202D104F580146D1C6D1C9B
:103BC0002A786E2A1FD00CDC632A31D004DC002A4C
:103BD0008BD0582A11D1A3E0642A68D0692A0CD16D
:103BE00065E0732A2ED004DC6F2A73D0702A04D1CA
:103BF0009BE0752A6FD0782A6ED01046DDE90F124F
:103C00009047761C50E1C4F30250022806D00328E6
:103C100009D0042801CF09D0066045E101CFF11792
:103C2000C0E9006140E101CF06803DE106703BE163
:103C300017F8040B8DF8000000208DF80100EB460A
:103C4000012003E057F804BB4FF0FF3061074FF04D
:103C5000000102D40DE008F10101884649450FDA60
:103C60008045F8DB1BF808100029F4D108E008F1C2
:103C7000010188468142FADB1BF808100029F6D1C1
:103C8000DDE90F23AAEB08008146214600F036F952
:103C9000304400EB080604E0DDE90F121BF8010BCD
:103CA0009047B8F10108F7D221464846F7E00A21CB
:103CB000C4F302534FF0000B0891022B04D001CF44
:103CC000C117032B09D00AE0FF1D27F00707F7E80B
:103CD000020108E032E01FE020E000B2C117042B2F
:103CE00001D140B2C117031E71F1000307DA4FF092
:103CF000000CD0EB0C006CEB01012D2302E023053E
:103D000004D52B238DF82430012303E0E30701D0F1
:103D10002023F7E7984658E00A2110E010210EE032
:103D200010204FF0000B08900CE010214FF0000B1A
:103D300044F004044FF00809089103E008214FF013
:103D4000000B0891C4F30253022B04D001CF0021D1
:103D5000032B06D006E0FF1D27F00707F7E8020156
:103D600003E080B2042B00D1C0B24FF0000823075B
:103D70002BD5702A07D0DDF820C08CF0100C5CEA3F
:103D80000B0C05D00EE040238DF82430012308E011
:103D900050EA010306D030238DF824308DF8252019
:103DA00002239846DDF820C08CF0080C5CEA0B0C6E
:103DB0000BD150EA010301D1630706D530238DF8FA
:103DC00024304FF00108A9F10109582A04D038A283
:103DD0000B9208AA0A920BE03AA2F9E75B46089A0E
:103DE000FCF7C2F90B9B9B5C0A9A521E0A92137055
:103DF00050EA0102F2D10A98ADEB000000F1200B6D
:103E0000600702D524F4803401E04FF00109D94560
:103E100002DDA9EB0B0000E0002000EB0B014144A8
:103E20000890AAEB010AE00306D4DDE90F2321463E
:103E3000504600F063F806444FF0000908E009A975
:103E400011F80900DDE90F12904709F10109761C0C
:103E5000C145F4DBE0030CD5DDE90F2321465046D4
:103E600000F04CF8064404E0DDE90F1230209047E2
:103E7000761C0899481E08900029F5DC08E00A988D
:103E80000A990078491C0A91DDE90F129047761CC7
:103E9000BBF10001ABF1010BF1DC21465046DDE93D
:103EA0000F2300F019F806446D1C1BE609280100D9
:103EB00030313233343536373839616263646566A0
:103EC0000000000030313233343536373839414262
:103ED00043444546000000002DE9F041044600251A
:103EE0001E461746880404D405E039462020B04712
:103EF0006D1C641EF9D52846BDE8F0812DE9F0411E
:103F0000044600251E469046C80301D5302700E030
:103F10002027880404D505E041463846B0476D1C8B
:103F2000641EF9D52846BDE8F081000013B54FF0B6
:103F3000FF33012269460248FEF75EFA00981CBD75
:103F4000BC050020FDF7C6FAFFF722FAFEF74CFC8D
:103F5000FEF7C4FCD548D449002601604FF4614106
:103F6000C0E901160C24C660C0E904648661C6611C
:103F7000FEF7D4F8CD48CE49AC380160CD49C0E950
:103F800001164FF48041C0E9036146618661C66154
:103F90000662FDF71FF8C548C74940304FF4165573
:103FA00080E86200C660C0E904648661C661FEF70D
:103FB000B5F8BE48C149803080E86200C660C0E9FB
:103FC00004648661C661FEF7A9F8B8480122BC49BD
:103FD0004030FEF7C5F9FEF7A9FEFFF788FAFCF7B7
:103FE000F3FFB74C241FE060FCF7EEFFA060FCF786
:103FF00087FCFEF7E9FCFCF7B3FCFCF79FFDE071E2
:104000004FF0010A642801D984F807A0ADA0FFF79A
:104010003BFDFEF77FFC4FF47A7B5D465846FCF78C
:10402000EFFDFCF797F92846FCF7EAFD9F4F4FF0AC
:104030006409D4374FF00A082078012834D126705B
:10404000A2A0FFF721FD0025A2A0795DFFF71CFDCE
:104050006D1CEDB2052DF7D33878A12806D0A22823
:104060000AD0A5280FD0A62813D01DE0787860715B
:10407000B8B1FEF76BFC11E0787860710520A07094
:10408000FCF76EFB10E07878607150B1FCF7A2F994
:1040900007E07878607120B1FCF780F95846FCF7AA
:1040A000AFFDA670FCF75CFCFCF78EFFA168401A20
:1040B00040F6B83188420BD9A07848B9FCF750FCDB
:1040C000FCF782FFA060E078012801D1FCF742F9FB
:1040D000FCF77AFFE168401AC82818D9A07898B987
:1040E000FCF7D8F810B1092809D00DE0A179A32078
:1040F000FFF7BCF8FCF76AFAFEF70CFC01E0FCF7EE
:10410000B3FAFCF761FFA060FCF75EFFE0606C486B
:104110000C30FFF7BAF9F0B9A07810B1052813D028
:1041200019E0FCF751FFA060FCF7E6F8050008D0A5
:10413000FCF792F92946A420FFF798F8FEF7EAFB6E
:1041400009E0FCF7D7F906E0607908B1FEF72CFF2B
:10415000A670FCF705FCFEF749FF10283FF46CAF92
:10416000BFF46AAFDFE800F008080808080808088C
:1041700008088A8F94998257A178022906D00329CA
:1041800004D0042902D006297FF456AF617901EBEF
:10419000810100EB4100C0B26071642800D96671F2
:1041A0001E212820FEF7BCFD01224C494CA0FEF741
:1041B000C1FE1E212820FEF7B3FD6079642803D2DA
:1041C00001224649202005E0B0FBF9F03030C0B2B2
:1041D00001224249FEF75EFE60790A2803D20122DD
:1041E0003E49202008E0B0FBF9F209FB1201B1FBC7
:1041F000F8F0012239493030FEF74CFE6179B1FB0D
:10420000F8F208FB1210012234493030FEF742FE6A
:10421000FEF7A4FE10E7A07878B1022812D0032898
:1042200019D004281DD00628F4D1607978B1FCF7A4
:10423000B5F85846FCF7E4FC09E084F802A0FCF766
:10424000A7FAF9E6607910B1FEF780FBF1E7A670F6
:10425000FCF786FBF0E660790028F8D0FCF7BAF8A6
:10426000F5E70520A070FCF77BFAE5E6A0780028CA
:10427000D0D000BFFCF75AFA6671DDE6A0780128BD
:10428000C8D102200DE0A0780128C3D1032008E0A6
:10429000A0780128BED1042003E0A0780128B9D17C
:1042A0000620A070E6E70000003801403C05002031
:1042B00000540040801A06000044004000480040BE
:1042C0001400002053544152540D0A004553503AF3
:1042D00000000000253032582000000008000020B7
:1042E00020202020000000000148401EFDD1704722
:1042F00090D003001CB502238DF804100A21009110
:104300008DF80520014601AA0148FCF7FDFF1CBD00
:104310009004002070B5C2B000248DF8041001A9EB
:1043200004E0155D0E19641C7570E4B29C42F8D36C
:104330000A2100915B1C01469BB201AA0248FCF7CE
:10434000E3FF42B070BD00009004002000000000B8
:10435000000000000000000000000000000000005D
:1043600000100010001000100010001000000010DD
:1043700000000000002800280028000000000000C5
:10438000000000000000000000240024007C002445
:104390000048007C0048004800000000003800543D
:1043A0000050003800140054005400380010000081
:1043B0000020005400580030002800540014000869
:1043C0000000000000100028002800100034004801
:1043D0000048003400000000001000100010000031
:1043E00000000000000000000000000000080010B5
:1043F00000200020002000200020002000100008E5
:10440000002000100008000800080008000800084C
:1044100000100020001000380010002800000000EC
:10442000000000000000000000000000001000106C
:10443000007C0010001000000000000000000000E0
:10444000000000000000000000000010001000103C
:104450000000000000000000000000380000000024
:10446000000000000000000000000000000000004C
:1044700000000010000000000008000800100010FC
:104480000010001000200020000000000038004450
:104490000044005400440044004400380000000080
:1044A000001000300050001000100010001000102C
:1044B0000000000000380044004400040008001020
:1044C0000020007C000000000038004400040018B8
:1044D0000004000400440038000000000008001838
:1044E000002800280048007C0008000800000000A8
:1044F000007C0040004000780004000400440038C4
:1045000000000000003800440040007800440044EF
:104510000044003800000000007C00040008001087
:10452000001000200020002000000000003800449F
:1045300000440038004400440044003800000000FB
:104540000038004400440044003C000400440038AB
:10455000000000000000000000100000000000004B
:10456000000000100000000000000000000000102B
:10457000000000000000001000100010000000000B
:10458000000C003000400030000C00000000000073
:10459000000000000000007C0000007C0000000023
:1045A0000000000000000000006000180004001877
:1045B0000060000000000000003800440004000813
:1045C000001000100000001000000000003800443F
:1045D000004C0054005C0040004000380000000027
:1045E00000100028002800280028007C0044004417
:1045F00000000000007800440044007800440044BB
:1046000000440078000000000038004400400040F2
:1046100000400040004400380000000000700048E6
:1046200000440044004400440048007000000000C2
:10463000007C00400040007C004000400040007CC6
:1046400000000000007C0040004000780040004076
:1046500000400040000000000038004400400040DE
:10466000005C0044004400380000000000440044A6
:104670000044007C0044004400440044000000006A
:10468000003800100010001000100010001000385A
:104690000000000000040004000400040004000402
:1046A0000044003800000000004400480050006052
:1046B0000050004800480044000000000040004056
:1046C00000400040004000400040007C000000002E
:1046D0000044006C006C005400440044004400445A
:1046E0000000000000440064006400540054004CCA
:1046F000004C004400000000003800440044004426
:1047000000440044004400380000000000780044E9
:1047100000440044007800400040004000000000D9
:104720000038004400440044004400440054003871
:104730000004000000780044004400440078004871
:1047400000480044000000000038004400400030F1
:10475000000800040044003800000000007C001045
:1047600000100010001000100010001000000000E9
:104770000044004400440044004400440044003825
:1047800000000000004400440044002800280028E5
:1047900000100010000000000044004400540054C9
:1047A0000054006C0028002800000000004400288D
:1047B000002800100010002800280044000000001D
:1047C00000440044002800280010001000100010D1
:1047D00000000000007C0004000800100010002011
:1047E0000040007C000000000018001000100010C5
:1047F0000010001000100010001000180020002011
:104800000010001000100010000800080000000058
:1048100000300010001000100010001000100010F8
:1048200000100030001000280028004400000000A4
:104830000000000000000000000000000000000078
:104840000000000000000000000000FE002000103A
:104850000000000000000000000000000000000058
:104860000000000000380044003C0044004C0034CC
:104870000000000000400040005800640044004474
:1048800000640058000000000000000000380044F0
:104890000040004000440038000000000004000414
:1048A0000034004C00440044004C00340000000080
:1048B0000000000000380044007C00400044003844
:1048C00000000000000C0010007C00100010001020
:1048D0000010001000000000000000000034004C38
:1048E00000440044004C00340004007800400040C4
:1048F00000580064004400440044004400000000EC
:1049000000100000007000100010001000100010D7
:1049100000000000001000000070001000100010E7
:1049200000100010001000E000400040004800505F
:1049300000600050004800440000000000700010BB
:104940000010001000100010001000100000000007
:10495000000000000078005400540054005400543B
:104960000000000000000000005800640044004403
:104970000044004400000000000000000038004433
:104980000044004400440038000000000000000023
:104990000058006400440044006400580040004097
:1049A000000000000034004C00440044004C00347F
:1049B00000040004000000000058006400400040B3
:1049C00000400040000000000000000000380044EB
:1049D00000300008004400380000000000200020E3
:1049E00000780020002000200020001800000000B7
:1049F000000000000044004400440044004C003427
:104A000000000000000000000044004400280028CE
:104A100000280010000000000000000000540054B6
:104A20000054006C00280028000000000000000076
:104A3000004400280010001000280044000000007E
:104A4000000000000044004400280028001000106E
:104A50000010006000000000007C00080010002032
:104A60000040007C00000000001800100010001042
:104A7000002000200010001000100018001000108E
:104A800000100010001000100010001000100010A6
:104A90000030001000100010000800080010001086
:104AA000001000300000000000000074004C000006
:104AB0000000000000000000FF00000000000000F7
:104AC00000000000010203040607080900000000BE
:104AD00001020304F44A00080000002070000000F6
:104AE000A83A0008644B000870000020600A00002B
:104AF000B83A00080000000000000000070A0000AB
:104B00004C4300080000000000000000000000000E
:104B1000000000000000000000EF01FFFFFFFF01A8
:104B200000030100050100030500090100030D0059
:104B3000110100031D002101000402010008010011
:104B40000402020009010008040100000040004EB8
:104B50000100000010000000000000000024F4002C
:044B60000000000051
:04000005080000ED02
:00000001FF
